:020000040800F2
:10000000105F0020F1010008D90F00080D0F000853
:10001000D50F0008C5040008E51000080000000026
:1000200000000000000000000000000015100008A3
:10003000C904000800000000C101000817100008F2
:100040000B0200080B0200080B0200080B0200085C
:100050000B0200080B020008CB0400080B0200088A
:100060000B0200080B0200080B0200080B0200083C
:100070000B0200080B0200080B0200080B0200082C
:100080000B0200080B0200080B0200080B0200081C
:100090000B0200080B0200080B0200080B0200080C
:1000A0000B0200080B0200080B0200080B020008FC
:1000B0000B0200080B0200080B0200080B020008EC
:1000C0000B0200080B0200080B0200080B020008DC
:1000D0000B0200080B0200080B0200080B020008CC
:1000E0000B0200080B0200080B0200080B020008BC
:1000F0000B0200080B0200080B0200080B020008AC
:100100000B0200080B0200080B0200080B0200089B
:100110000B0200080B0200080B0200080B0200088B
:100120000B0200080B0200080B0200080B0200087B
:100130000B0200080B0200080B0200080B0200086B
:100140000B0200080B0200080B0200080B0200085B
:100150000B0200080B0200080B0200080B0200084B
:100160000B0200080B0200080B0200080B0200083B
:100170000B0200080B0200080B0200080000000040
:100180000B0200080B0200080B0200080B0200081B
:100190000B0200080B0200080B0200080B0200080B
:1001A0000B0200080B0200080B020008DFF80CD05D
:1001B00000F076F90048004785110008105F002024
:1001C000EFF3098020B120E9F00F074909680860C2
:1001D000054806490A6802601068B0E8F00F80F32D
:1001E00009884EF0040E7047100000201400002013
:1001F0000648804706480047FEE7FEE7FEE7FEE7C1
:10020000FEE7FEE7FEE7FEE7FEE7FEE791100008E7
:10021000AD0100082DE9F05F0546002092469B469F
:1002200088460646814640241BE02846414647460C
:10023000224600F0C7F853465A46C01A914110D3DF
:1002400011461846224600F0AEF82D1A67EB010859
:100250004F4622460120002100F0A5F817EB0009C7
:100260004E41201EA4F10104DFDC484631462A46F7
:100270004346BDE8F09F2DE9FE4F81EA030404F0F8
:10028000004421F0004100944FF0000B23F00043A4
:1002900050EA01045ED052EA03045BD0C3F30A546F
:1002A000C1F30A552C44A4F2F3340194A0FB025488
:1002B000C1F3130141F48011C3F3130343F480131A
:1002C00001FB024400FB034E840A970A44EA81546E
:1002D00047EA8357A4FB076802958D0A05FB07854B
:1002E0004FEA932C04FB0C542705029D4FEA065855
:1002F00047EA1637B5EB08056EEB070C870E920E32
:1003000047EA811742EA8312A7FB0201B6EB0B0111
:1003100064EB00042B0D43EA0C335E1844EB1C50D5
:10032000DA465146E7FB0201C5F313044FEA0B33EB
:1003300043EA14534FEA0432019C43EA0603A4F152
:100340000C040294009CCDE900B400F05AF803B00C
:10035000BDE8F08F00200146F9E70EB540F23341C9
:1003600002910021CDE900110A460B4600F049F840
:1003700003B000BDC1F30A5210B5C1F3130140F23E
:10038000FF3341F480119A4201DA002010BD40F29F
:1003900033439A42A2F2334203DC524200F012F895
:1003A00010BD904010BD202A04DB203A00FA02F173
:1003B000002070479140C2F1200320FA03F3194353
:1003C00090407047202A04DB203A21FA02F00021F5
:1003D000704721FA02F3D040C2F120029140084355
:1003E0001946704710B5141E73F1000408DA401C5A
:1003F00041F1000192185B411A4301D120F0010044
:1004000010BD2DE9F04D92469B4611B1B1FA81F233
:1004100002E0B0FA80F220329046FFF7C4FF0446B3
:100420000F4640EA0A0041EA0B0153465A46084388
:1004300013D0114653EA010019D0C8F140025046CA
:10044000FFF7C0FF05460E46504659464246FFF7A5
:10045000AAFF084305D0012004E020463946BDE844
:10046000F08D0020054346EAE0762C4337430A9896
:100470006305E40AA0EB08000022FD0A44EA4754A1
:100480000A3002D500200146E9E70105101969414B
:10049000DDE9084500196941BDE8F04DA2E700001B
:1004A000064C074D06E0E06840F0010394E80700C1
:1004B00098471034AC42F6D3FFF77CFE1C190008B5
:1004C0003C19000800BFFEE770477047F8B50246C8
:1004D0000B460025002400200021E6E0012606FA54
:1004E00001F51E6806EA0504AC4273D15E68022E6F
:1004F00002D05E68122E13D1CF0802F1200656F802
:1005000027004E07F70E0F26BE40B0434F07FF0EE1
:100510001E69BE403043CF0802F1200646F827008E
:1005200010684F000326BE40B0431E7906F0030654
:100530004F00BE40304310605E68012E08D05E68F8
:10054000022E05D05E68112E02D05E68122E13D1E5
:1005500090684F000326BE40B0434F00DE68BE40A7
:1005600030439060506801268E40B0431E79C6F338
:1005700000168E4030435060D0684F000326BE40C6
:10058000B0434F009E68BE403043D0605E6806F0C6
:100590008056B6F1805FA8D100BF00260096454E78
:1005A000366846F48046434F3E603E46366806F461
:1005B0008046009600BF00BF3F4E8F0856F82700C8
:1005C0008E07370F0F26BE40B0433C4EB24202D1D9
:1005D00000262EE068E03A4EB24201D1012628E022
:1005E000384EB24201D1022623E0374EB24201D149
:1005F00003261EE0354EB24201D1042619E0344EE6
:10060000B24201D1052614E0324EB24201D1062693
:100610000FE0314EB24201D107260AE02F4EB2421E
:1006200001D1082605E02E4EB24201D1092600E094
:100630000A268F073F0FBE4030431F4E8F0846F8F3
:100640002700284E3068A0435E6806F48036B6F571
:10065000803F00D12043234E3060361D3068A043D8
:100660005E6806F40036B6F5003F00D120431D4E0B
:10067000361D3060361D3068A0435E6806F4801673
:10068000B6F5801F00D12043164E08363060361D67
:100690003068A0435E6806F40016B6F5001F00D16E
:1006A0002043104E0C363060491C1029FFF416AF61
:1006B000F8BD000044380240083801400000024004
:1006C0000004024000080240000C024000100240FA
:1006D0000014024000180240001C024000200240AA
:1006E00000240240003C01400148006870470000BF
:1006F00004000020034800680349097808440149C0
:1007000008607047040000200C00002070B504460B
:100710000E4800784FF47A71B1FBF0F00C4909688B
:10072000B1FBF0F5284600F0D7FB08B1012070BD01
:10073000102C07D200222146501E00F00DF805486B
:10074000046001E00120F2E70020F0E70C00002047
:1007500000000020080000202DE9F05F80460D46D3
:100760001646002700F03AFC074639462A4633462B
:1007700001F00700C0F1070ABAF1040F02D94FF0E7
:10078000040A01E0C0F1070AD14600F1040ABAF1F7
:10079000070F02D24FF0000A01E0A0F1030AD4468D
:1007A0004FF0010A0AFA09FAAAF1010A0AEA020A52
:1007B0000AFA0CFA4FF0010B0BFA0CFBABF1010B30
:1007C0000BEA030B4AEA0B042146404600F00EFCFC
:1007D000BDE8F09F38B5002400BF002000901D4800
:1007E000006840F080501B4908600846006800F02F
:1007F0008050009000BF00BF012017490864FFF738
:1008000073FF044607E0FFF76FFF001BB0F57A7F28
:1008100001D9032038BD1148406800F48030B0F59C
:10082000803FF0D101200C494864FFF75DFF04468A
:1008300007E0FFF759FF001BB0F57A7F01D90320CD
:10084000E8E70648406800F40030B0F5003FF0D11A
:100850000020DFE74038024000000E4200700040F8
:1008600070B504460D460CB9012070BD58480068AB
:1008700000F00F00A84209D255490D7008460068E3
:1008800000F00F00A84201D00120EEE7207800F030
:10089000020002281DD1207800F00400042805D1B0
:1008A0004C48006840F4E0504A490860207800F065
:1008B0000800082805D14748006840F460404549D1
:1008C00008604448006820F0F000A16808434149EE
:1008D0000860207800F00100A8B36068012807D103
:1008E0003C4808380068C0F34040B8B90120BCE774
:1008F0006068022802D06068032807D135480838AC
:100900000068C0F3406048B90120AEE731480838BC
:100910000068C0F3400008B90120A6E72D48006830
:1009200020F00300616808432A490860FFF7DCFEF5
:10093000064609E0FFF7D8FE801B41F28831884265
:1009400002D9032091E707E02248006800F00C007C
:100950006168B0EB810FEDD11D48006800F00F0019
:10096000A84209D91A490D700846006800F00F0026
:10097000A84201D0012078E7207800F00400042884
:1009800007D11448006820F4E050E1680843114999
:100990000860207800F00800082808D10D48006899
:1009A00020F46040216940EAC1000A49086000F073
:1009B00017F808490968C1F30311074A515CC84098
:1009C000064908600F20FFF7A1FE00204DE7000058
:1009D000003C0240083802400418000800000020D3
:1009E0002DE9F047002400250026A146254800688F
:1009F00000F00C0020B1042805D008283AD105E009
:100A0000DFF8849039E0DFF8849036E01D48001F5D
:100A1000006800F03F041B48001F006800F48000DD
:100A200078B11A481749091F0968C1F38811A0FB5A
:100A300001700146224600233846FFF7EBFB0546CE
:100A40000EE011480F49091F0968C1F38811A0FB86
:100A500001700146224600233846FFF7DBFB0546BE
:100A60000848001F0068C0F30140401C4600B5FB69
:100A7000F6F902E0DFF8109000BF00BF4846BDE87D
:100A8000F0870000083802400024F40040787D011F
:100A9000F8B504460CB90120F8BD207800F001003B
:100AA000002874D0F948006800F00C0004280DD02C
:100AB000F648006800F00C00082813D1F348001F26
:100AC000006800F48000B0F5800F0BD1EF480838C3
:100AD0000068C0F34040002859D06068002856D113
:100AE0000120D9E700BF6068B0F5803F08D1E74832
:100AF0000838006840F48030E449083908601EE096
:100B00006068B0F5A02F0DD1E0480838006840F4C7
:100B10008020DE49083908600846006840F48030CB
:100B200008600CE0D9480838006820F48030D749C4
:100B3000083908600846006820F48020086000BF7B
:100B4000606890B1FFF7D0FD054606E0FFF7CCFDE9
:100B5000401B642801D903209EE7CC480838006870
:100B6000C0F340400028F1D011E0FFF7BDFD05467D
:100B700006E0FFF7B9FD401B642801D903208BE78D
:100B8000C24808380068C0F340400028F1D12078FE
:100B900000F0020002285FD1BC48006800F00C00A1
:100BA00058B1BA48006800F00C0008281CD1B748BA
:100BB000001F006800F48000B0B9B448083800682D
:100BC000C0F3400020B1E068012801D0012063E7B4
:100BD000AE480838006820F0F800216940EAC100FA
:100BE000AA490839086037E0E06800B30120A84945
:100BF0000860FFF779FD054606E0FFF775FD401B2D
:100C0000022801D9032047E7A04808380068C0F34C
:100C100040000028F1D09D480838006820F0F80016
:100C2000216940EAC10099490839086014E00020B0
:100C300097490860FFF758FD054606E0FFF754FDA9
:100C4000401B022801D9032026E790480838006895
:100C5000C0F340000028F1D1207800F008000828F7
:100C60002CD16069A8B101208A490860FFF73CFDDA
:100C7000054606E0FFF738FD401B022801D9032096
:100C80000AE782486C300068C0F340000028F1D0C9
:100C900014E000207F490860FFF726FD054606E0C6
:100CA000FFF722FD401B022801D90320F4E6774814
:100CB0006C300068C0F340000028F1D1207800F0CB
:100CC0000400042870D1002670483830006800F015
:100CD000805090B900BF002000906C483830006808
:100CE00040F080506949383108600846006800F0DB
:100CF0008050009000BF00BF01266748006800F4E4
:100D00008070B0B96448006840F48070624908603F
:100D1000FFF7EAFC054606E0FFF7E6FC401B022869
:100D200001D90320B8E65C48006800F48070002810
:100D3000F2D000BFA068012808D15448683000688C
:100D400040F001005149683108601DE0A0680528A5
:100D50000DD14E486830006840F004004B496831BE
:100D600008600846006840F0010008600CE0474851
:100D70006830006820F00100444968310860084686
:100D8000006820F00400086000BFA068A8B1FFF769
:100D9000ABFC054609E0FFF7A7FC401B41F2883198
:100DA000884202D9032077E626E038486830006898
:100DB000C0F340000028EED013E0FFF795FC054695
:100DC00008E0FFF791FC401B41F28831884201D9CD
:100DD000032061E62D4868300068C0F34000002819
:100DE000EFD1012E07D129483830006820F080501B
:100DF00026493831086000BFA069B8B323480068AD
:100E000000F00C0008285ED0A069022846D100201E
:100E10001F490866FFF768FC054606E0FFF764FC1B
:100E2000401B022801D9032036E61848083800681C
:100E3000C0F340600028F1D1D4E907010843616A9A
:100E400040EA81110122A06AC2EB500041EA004150
:100E50002C20005D41EA00600C49091F0860012058
:100E60000B490866FFF740FC054607E02DE0FFF759
:100E70003BFC401B022801D903200DE6034808383B
:100E80000068C0F340600028F1D01EE0083802403E
:100E900000004742800E47420070004000200C498D
:100EA0000866FFF721FC054606E0FFF71DFC401B26
:100EB000022801D90320EFE506480068C0F340602E
:100EC0000028F2D101E00120E6E50020E4E5000081
:100ED000000047420038024070B504462546681EAF
:100EE000B0F1807F01D301200FE0681E4FF0E021B8
:100EF00048610F214FF0FF3000F078F800204FF0EC
:100F0000E021886107200861002070BD00BFFEE776
:100F100000BF03480068401C01490860F9E7000071
:100F20002000002000B587B000BF002001902748B6
:100F3000006840F08000254908600846006800F01D
:100F40008000019000BF00BF00BF00200190084654
:100F5000006840F0800008600846006800F08000EB
:100F6000019000BF00BF00BF00200190084600684C
:100F700040F0800008600846006800F080000190A2
:100F800000BF00BF081502900120039004900320C9
:100F9000059002A90E48FFF799FA4FF400600290FD
:100FA00002A90B48FFF792FA4FF48050029002A971
:100FB0000748FFF78BFA4FF4806005491831086045
:100FC000400008604000086007B000BD30380240B3
:100FD000001C024000BFFEE77047000002480068A6
:100FE000C0F30220704700000CED00E010B50028AF
:100FF00007DA0A07140E054A00F00F031B1FD4542A
:1010000003E00A07130E024A135410BD18ED00E066
:1010100000E400E0704710B5FFF76CFB00F016FB32
:1010200010BD10B592B00024012001900004029080
:101030000220079041050891192109914FF4B471DC
:101040000A9102210B9104210C9101A8FFF720FDC8
:1010500004460CB100BFFEE7FFF7BCFB04460CB131
:1010600000BFFEE70F200D9002200E9000200F9091
:101070004FF4A05010904FF48050119005210DA80E
:10108000FFF7EEFB04460CB100BFFEE712B010BD47
:101090001048006840F001000E49086000200D492A
:1010A000083108600B4800680B490840094908608E
:1010B0000A48091D0860081F006820F48020091FE5
:1010C0000860002003490C3108604FF000600449BB
:1010D0000860704700380240FFFFF6FE1030002421
:1010E00008ED00E000BFFEE702E008C8121F08C1DB
:1010F000002AFAD170477047002001E001C1121F99
:10110000002AFBD17047000008B5124800234FF0B9
:10111000113211490090114800F0CEF91048012316
:101120004FF022320F4900900F4800F0C5F90F48E8
:1011300001234FF033320E4900900E4800F0BCF905
:101140000D4801234FF044320C4900900C4800F048
:10115000B3F908BD04230020FD1600080412002086
:1011600004330020511700084412002004430020DB
:101170007117000884120020045300209117000802
:10118000C412002010B5FFF74CFFFFF7CBFE00F0B4
:101190000FFBFFF7B9FF00F07DF90349086000F08D
:1011A000EBF9002010BD00001400002001238B404B
:1011B00002689A430260704700B50146087818B18A
:1011C0000878134A105C00BD088800F47F4030B1F5
:1011D0000888C0F307200E4A105C0830F3E708685F
:1011E00000F47F0030B10868C0F30740084A105C83
:1011F0001030E8E7086800F07F4028B10868000E6A
:10120000034A105C1830DEE700F007F8DBE7000067
:101210001C1800080021016070472020704701233E
:101220008B4002681A430260704770B504460D4651
:101230002570201D00F05FF870BD2DE9F0410446D7
:101240000D46164600F01AF90746616B081D211D70
:1012500000F063F800206063A563E06920F47F007C
:10126000E061E663384600F00FF9BDE8F0812DE952
:10127000F04705460C4616461F46DDF8208000F074
:10128000FDF881466563A663E0693843E0610020AC
:10129000E063204600F092F9211D281D00F018F8A7
:1012A000B8F1000F03D04146204600F0B7F8484699
:1012B00000F0EAF8BDE8F087026852684A60026808
:1012C0000A600268516001608268521C8260704747
:1012D000086042684A604268116041608268521C3E
:1012E00082607047014688687047014600208A681E
:1012F00002B108687047006040600021816070475B
:10130000014600208A683AB10868026851600268A4
:101310000A608A68521E8A607047D1E900231A6009
:10132000D1E900325A608268521E826070472DE90E
:10133000F04704460F46154698463E4605FB0869A9
:10134000082D01D2BDE8F08704212046FFF76DFF8C
:1013500027616561C4F8188004F11C00FFF7CBFF1A
:1013600008E0304600F038F8314604F11C00FFF781
:10137000AFFF2E444E45F4D300BFE3E7F8B5044673
:101380000D46164600F07AF8074604F11C00FFF7F8
:10139000A9FF48B104F11C00FFF7B2FF28603846EE
:1013A00000F072F80020F8BD0423002209480096DE
:1013B00001682046FFF75BFF384600F065F800F053
:1013C0001BF904480068806B286002480068C06B05
:1013D000E9E7000010000020006040607047000056
:1013E00070B5044600F04AF80546214606480068F4
:1013F00000F014F80448006800F0E0F8284600F017
:1014000043F800F0F9F870BD1000002010B5024854
:10141000FFF771FF10BD0000B80100202DE9F04773
:10142000044689464846FEF798FF0746094A0A4B94
:10143000FEF721FF0546FEF79DFFE06004F1100175
:101440000648FFF745FFE06940F00400E061BDE8B1
:10145000F08700009A9999999999B93FB8010020AD
:1014600010B5044604F110010348FFF756FFE06988
:1014700020F00400E06110BDB801002000BFEFF3D0
:101480001081084672B6704700BF80F3108800BF15
:101490007047000010B50648FFF78EFE044604EBC7
:1014A0004401044A02EB8100FFF71FFF001F10BD3B
:1014B00018000020380000202DE9F04105460E46B6
:1014C00017469846069C4FF08071201F0446016025
:1014D000201F044606601421201F044601601221CB
:1014E000201F044601600321201F044601600221E1
:1014F000201F044601600121201F04460160201FB7
:10150000044607601121201F044601601021201F9E
:10151000044601600921201F044601600821201FA4
:10152000044601600721201F044601600621201F98
:10153000044601600521201F044601600421201F8C
:10154000044601600A2028622C600020E860C5F88B
:101550001880E8616862A862E86285F8300005F1E9
:101560001000FFF739FF281DFFF736FF284600F06F
:1015700011F8BDE8F0810000002080F3098800BF69
:10158000FF2003490870C80601491E3908607047EA
:1015900022ED00E010B50446A16901EB4101054AC6
:1015A00002EB8100211DFFF787FE0348A169FFF7C9
:1015B00036FE10BD380000201800002010B504468B
:1015C000A16901EB41010A4A02EB8100211DFFF7ED
:1015D000A4FEA16901EB4101054A02EB8100FFF77E
:1015E00081FE18B90348A169FFF7E0FD10BD0000B6
:1015F000380000201800002070B5FFF73FFF0546B7
:101600000B480078002803DD2846FFF73DFF70BD3A
:10161000FFF740FF044607480068844203D00648AD
:10162000046000F00BF82846FFF72EFF00BFEEE73E
:101630001C00002010000020140000204FF08050FB
:10164000014908607047000004ED00E070B5FFF745
:1016500015FF06462648056813E0A5F11004E0686A
:10166000401EE06060B9606B20B10122002120467D
:10167000FFF7E3FD2046FFF7F3FE2046FFF78AFF62
:101680002D681B488542E8D11A480068006A401E50
:1016900018490968086228BB16490968896901EB7D
:1016A0004101154A02EB8100FFF71CFED0B1114940
:1016B0000968896901EB41010F4A02EB8100FFF7DC
:1016C0001FFE0C490968896901EB41010A4A02EBD6
:1016D000810008490968091DFFF7FAFD0A2005493C
:1016E000096808623046FFF7CFFEFFF785FF70BD3F
:1016F000B8010020100000203800002094B014230E
:10170000642210491048FFF712FE002407E06846E3
:1017100000EB840100220C48FFF730FE641C142CFF
:10172000F5DB0220FFF75CFE00BF002007490860E0
:101730006420FFF755FE0120044908606420FFF78C
:101740004FFEF2E704530020D45A0020240000206A
:1017500000BF002005490860C820FFF741FE0120B6
:1017600002490860C820FFF73BFEF2E7280000208E
:1017700000BF002005490860C820FFF731FE0120A6
:1017800002490860C820FFF72BFEF2E72C0000207A
:1017900000BF0020054908606420FFF721FE0120FA
:1017A000024908606420FFF71BFEF2E730000020CA
:1017B00038B500200D4908700D48FFF72BFD0024B7
:1017C00007E004EB44010B4A02EB8100FFF793FDB5
:1017D000641C202CF5D3FFF719FE07481F230022B5
:1017E000064900900648FFF767FE38BD1C00002040
:1017F000180000203800002004120020110F0008FB
:10180000C4010020000000000000000001020304E9
:10181000060708090000000001020304FF000100A0
:1018200002000100030001000200010004000100A9
:101830000200010003000100020001000500010098
:101840000200010003000100020001000400010089
:101850000200010003000100020001000600010077
:101860000200010003000100020001000400010069
:101870000200010003000100020001000500010058
:101880000200010003000100020001000400010049
:101890000200010003000100020001000700010036
:1018A0000200010003000100020001000400010029
:1018B0000200010003000100020001000500010018
:1018C0000200010003000100020001000400010009
:1018D00002000100030001000200010006000100F7
:1018E00002000100030001000200010004000100E9
:1018F00002000100030001000200010005000100D8
:1019000002000100030001000200010004000100C8
:101910000200010003000100020001003C19000860
:101920000000002038000000E810000874190008CA
:1019300038000020D85E0000F81000080024F400F1
:101940000000000010000000010000000000000086
:101950000000000000000000000000000000000087
:101960000000000000000000000000000000000077
:041970000000000073
:04000005080001AD41
:00000001FF
