:020000040800F2
:1000000028240020F1010008010E0008490D000815
:10001000FD0D0008D9020008190F000800000000BB
:100020000000000000000000000000003D0E00087D
:10003000DD02000800000000C10100083F0E0008BA
:100040000B0200080B0200080B0200080B0200085C
:100050000B0200080B020008DF0200080B02000878
:100060000B0200080B0200080B0200080B0200083C
:100070000B0200080B0200080B0200080B0200082C
:100080000B0200080B0200080B0200080B0200081C
:100090000B0200080B0200080B0200080B0200080C
:1000A0000B0200080B0200080B0200080B020008FC
:1000B0000B0200080B0200080B0200080B020008EC
:1000C0000B0200080B0200080B0200080B020008DC
:1000D0000B0200080B0200080B0200080B020008CC
:1000E0000B0200080B0200080B0200080B020008BC
:1000F0000B0200080B0200080B0200080B020008AC
:100100000B0200080B0200080B0200080B0200089B
:100110000B0200080B0200080B0200080B0200088B
:100120000B0200080B0200080B0200080B0200087B
:100130000B0200080B0200080B0200080B0200086B
:100140000B0200080B0200080B0200080B0200085B
:100150000B0200080B0200080B0200080B0200084B
:100160000B0200080B0200080B0200080B0200083B
:100170000B0200080B0200080B0200080000000040
:100180000B0200080B0200080B0200080B0200081B
:100190000B0200080B0200080B0200080B0200080B
:1001A0000B0200080B0200080B020008DFF80CD05D
:1001B00000F080F8004800473D0F00082824002088
:1001C000EFF3098020B120E9F00F074909680860C2
:1001D000054806490A6802601068B0E8F00F80F32D
:1001E00009884EF0040E7047100000201400002013
:1001F0000648804706480047FEE7FEE7FEE7FEE7C1
:10020000FEE7FEE7FEE7FEE7FEE7FEE7B50E0008C5
:10021000AD0100082DE9F05F0546002092469B469F
:1002200088460646814640241BE02846414647460C
:10023000224600F02FF853465A46C01A914110D377
:1002400011461846224600F016F82D1A67EB0108F1
:100250004F4622460120002100F00DF817EB00095F
:100260004E41201EA4F10104DFDC484631462A46F7
:100270004346BDE8F09F202A04DB203A00FA02F151
:10028000002070479140C2F1200320FA03F3194384
:1002900090407047202A04DB203A21FA02F0002126
:1002A000704721FA02F3D040C2F120029140084386
:1002B00019467047064C074D06E0E06840F0010320
:1002C00094E8070098471034AC42F6D3FFF772FF6A
:1002D000E41000080411000800BFFEE770477047F3
:1002E00070B5044600F01EF906462546681C10B19C
:1002F00004480078054400BF00F014F9801BA842B0
:10030000FAD370BD0C000020F8B502460B4600255C
:10031000002400200021E6E0012606FA01F51E680F
:1003200006EA0504AC4273D15E68022E02D05E6814
:10033000122E13D1CF0802F1200656F827004E07DF
:10034000F70E0F26BE40B0434F07FF0E1E69BE409A
:100350003043CF0802F1200646F8270010684F000E
:100360000326BE40B0431E7906F003064F00BE4090
:10037000304310605E68012E08D05E68022E05D002
:100380005E68112E02D05E68122E13D190684F0065
:100390000326BE40B0434F00DE68BE40304390604D
:1003A000506801268E40B0431E79C6F300168E4079
:1003B00030435060D0684F000326BE40B0434F002A
:1003C0009E68BE403043D0605E6806F08056B6F14D
:1003D000805FA8D100BF00260096454E366846F4DF
:1003E0008046434F3E603E46366806F4804600969F
:1003F00000BF00BF3F4E8F0856F827008E07370F0B
:100400000F26BE40B0433C4EB24202D100262EE041
:1004100068E03A4EB24201D1012628E0384EB2429D
:1004200001D1022623E0374EB24201D103261EE05D
:10043000354EB24201D1042619E0344EB24201D108
:10044000052614E0324EB24201D106260FE0314EAD
:10045000B24201D107260AE02F4EB24201D108264E
:1004600005E02E4EB24201D1092600E00A268F0790
:100470003F0FBE4030431F4E8F0846F82700284EDE
:100480003068A0435E6806F48036B6F5803F00D140
:100490002043234E3060361D3068A0435E6806F46A
:1004A0000036B6F5003F00D120431D4E361D3060AA
:1004B000361D3068A0435E6806F48016B6F5801FCE
:1004C00000D12043164E08363060361D3068A043F8
:1004D0005E6806F40016B6F5001F00D12043104EEA
:1004E0000C363060491C1029FFF416AFF8BD00002F
:1004F0004438024008380140000002400004024035
:1005000000080240000C02400010024000140240AB
:1005100000180240001C024000200240002402405B
:10052000003C0140014800687047000004000020C2
:100530000348006803490978084401490860704786
:10054000040000200C00002070B504460E4800781E
:100550004FF47A71B1FBF0F00C490968B1FBF0F58A
:10056000284600F0D7FB08B1012070BD102C07D23F
:1005700000222146501E00F00DF80548046001E0FD
:100580000120F2E70020F0E70C000020000000202E
:10059000080000202DE9F05F80460D461646002732
:1005A00000F030FC074639462A46334601F0070082
:1005B000C0F1070ABAF1040F02D94FF0040A01E0B2
:1005C000C0F1070AD14600F1040ABAF1070F02D2BE
:1005D0004FF0000A01E0A0F1030AD4464FF0010AEF
:1005E0000AFA09FAAAF1010A0AEA020A0AFA0CFA54
:1005F0004FF0010B0BFA0CFBABF1010B0BEA030BF9
:100600004AEA0B042146404600F004FCBDE8F09F96
:1006100038B5002400BF002000901D48006840F05D
:1006200080501B4908600846006800F08050009028
:1006300000BF00BF012017490864FFF773FF04469D
:1006400007E0FFF76FFF001BB0F57A7F01D90320A9
:1006500038BD1148406800F48030B0F5803FF0D1DB
:1006600001200C494864FFF75DFF044607E0FFF7EF
:1006700059FF001BB0F57A7F01D90320E8E706484F
:10068000406800F40030B0F5003FF0D10020DFE713
:100690004038024000000E420070004070B5044631
:1006A0000D460CB9012070BD5848006800F00F00DD
:1006B000A84209D255490D700846006800F00F00A5
:1006C000A84201D00120EEE7207800F002000228C5
:1006D0001DD1207800F00400042805D14C480068A2
:1006E00040F4E0504A490860207800F008000828EB
:1006F00005D14748006840F46040454908604448D7
:10070000006820F0F000A1680843414908602078A3
:1007100000F00100A8B36068012807D13C48083800
:100720000068C0F34040B8B90120BCE76068022807
:1007300002D06068032807D1354808380068C0F344
:10074000406048B90120AEE7314808380068C0F37E
:10075000400008B90120A6E72D48006820F00300FA
:10076000616808432A490860FFF7DCFE064609E095
:10077000FFF7D8FE801B41F28831884202D903205E
:1007800091E707E02248006800F00C006168B0EBD8
:10079000810FEDD11D48006800F00F00A84209D973
:1007A0001A490D700846006800F00F00A84201D0F9
:1007B000012078E7207800F00400042807D11448CD
:1007C000006820F4E050E16808431149086020788F
:1007D00000F00800082808D10D48006820F46040A7
:1007E000216940EAC1000A49086000F017F8084989
:1007F0000968C1F30311074A515CC8400649086003
:100800000F20FFF7A1FE00204DE70000003C024052
:1008100008380240CC100008000000202DE9F04705
:10082000002400250026A1462548006800F00C00A1
:1008300020B1042805D008283AD105E0DFF88490DB
:1008400039E0DFF8849036E01D48001F006800F0B2
:100850003F041B48001F006800F4800078B11A486C
:100860001749091F0968C1F38811A0FB01700146EF
:10087000224600233846FFF7CDFC05460EE011481E
:100880000F49091F0968C1F38811A0FB01700146D7
:10089000224600233846FFF7BDFC05460848001FE6
:1008A0000068C0F30140401C4600B5FBF6F902E0C9
:1008B000DFF8109000BF00BF4846BDE8F087000099
:1008C000083802400024F40040787D01F8B5044661
:1008D0000CB90120F8BD207800F00100002874D088
:1008E000F948006800F00C0004280DD0F6480068B4
:1008F00000F00C00082813D1F348001F006800F432
:100900008000B0F5800F0BD1EF4808380068C0F3C5
:100910004040002859D06068002856D10120D9E70E
:1009200000BF6068B0F5803F08D1E748083800682C
:1009300040F48030E449083908601EE06068B0F592
:10094000A02F0DD1E0480838006840F48020DE492F
:10095000083908600846006840F4803008600CE000
:10096000D9480838006820F48030D7490839086031
:100970000846006820F48020086000BF606890B1DD
:10098000FFF7D0FD054606E0FFF7CCFD401B6428CD
:1009900001D903209EE7CC4808380068C0F34040E6
:1009A0000028F1D011E0FFF7BDFD054606E0FFF796
:1009B000B9FD401B642801D903208BE7C2480838E1
:1009C0000068C0F340400028F1D1207800F0020018
:1009D00002285FD1BC48006800F00C0058B1BA484A
:1009E000006800F00C0008281CD1B748001F006800
:1009F00000F48000B0B9B44808380068C0F3400083
:100A000020B1E068012801D0012063E7AE48083832
:100A1000006820F0F800216940EAC100AA490839BD
:100A2000086037E0E06800B30120A8490860FFF7DC
:100A300079FD054606E0FFF775FD401B022801D948
:100A4000032047E7A04808380068C0F340000028AA
:100A5000F1D09D480838006820F0F800216940EA8C
:100A6000C10099490839086014E0002097490860DE
:100A7000FFF758FD054606E0FFF754FD401B02282E
:100A800001D9032026E7904808380068C0F34000E9
:100A90000028F1D1207800F0080008282CD16069E6
:100AA000A8B101208A490860FFF73CFD054606E031
:100AB000FFF738FD401B022801D903200AE78248CE
:100AC0006C300068C0F340000028F1D014E0002032
:100AD0007F490860FFF726FD054606E0FFF722FD87
:100AE000401B022801D90320F4E677486C300068E7
:100AF000C0F340000028F1D1207800F00400042861
:100B000070D1002670483830006800F0805090B9ED
:100B100000BF002000906C483830006840F08050E2
:100B20006949383108600846006800F0805000903C
:100B300000BF00BF01266748006800F48070B0B9AC
:100B40006448006840F4807062490860FFF7EAFC7E
:100B5000054606E0FFF7E6FC401B022801D903200A
:100B6000B8E65C48006800F480700028F2D000BF4E
:100B7000A068012808D154486830006840F001009E
:100B80005149683108601DE0A06805280DD14E4824
:100B90006830006840F004004B496831086008463E
:100BA000006840F0010008600CE0474868300068C9
:100BB00020F001004449683108600846006820F0D0
:100BC0000400086000BFA068A8B1FFF7ABFC0546B1
:100BD00009E0FFF7A7FC401B41F28831884202D9A7
:100BE000032077E626E0384868300068C0F340000C
:100BF0000028EED013E0FFF795FC054608E0FFF76C
:100C000091FC401B41F28831884201D9032061E602
:100C10002D4868300068C0F340000028EFD1012E55
:100C200007D129483830006820F0805026493831F3
:100C3000086000BFA069B8B32348006800F00C004A
:100C400008285ED0A069022846D100201F49086606
:100C5000FFF768FC054606E0FFF764FC401B02282E
:100C600001D9032036E6184808380068C0F3406010
:100C70000028F1D1D4E907010843616A40EA8111F3
:100C80000122A06AC2EB500041EA00412C20005D25
:100C900041EA00600C49091F086001200B49086601
:100CA000FFF740FC054607E02DE0FFF73BFC401B4B
:100CB000022801D903200DE6034808380068C0F374
:100CC00040600028F1D01EE0083802400000474292
:100CD000800E47420070004000200C490866FFF774
:100CE00021FC054606E0FFF71DFC401B022801D948
:100CF0000320EFE506480068C0F340600028F2D109
:100D000001E00120E6E50020E4E5000000004742A4
:100D10000038024070B504462546681EB0F1807F59
:100D200001D301200FE0681E4FF0E02148610F2140
:100D30004FF0FF3000F06EF800204FF0E0218861A6
:100D400007200861002070BD00BFFEE700B587B036
:100D500000BF002001902748006840F0800025492E
:100D600008600846006800F08000019000BF00BFE6
:100D700000BF002001900846006840F08000086035
:100D80000846006800F08000019000BF00BF00BF6F
:100D9000002001900846006840F080000860084686
:100DA000006800F08000019000BF00BF08150290AD
:100DB0000120039004900320059002A90E48FFF73C
:100DC000A3FA4FF40060029002A90B48FFF79CFAC7
:100DD0004FF48050029002A90748FFF795FA4FF4AC
:100DE00080600549183108604000086040000860D4
:100DF00007B000BD30380240001C024000BFFEE7D3
:100E00007047000002480068C0F3022070470000ED
:100E10000CED00E010B5002807DA0A07140E054AA9
:100E200000F00F031B1FD45403E00A07130E024AFD
:100E3000135410BD18ED00E000E400E0704710B559
:100E4000FFF776FB10BD10B592B000240120019091
:100E50000004029002200790410508911921099190
:100E60004FF4B4710A9102210B9104210C9101A855
:100E7000FFF72CFD04460CB100BFFEE7FFF7C8FBEF
:100E800004460CB100BFFEE70F200D9002200E902B
:100E900000200F904FF4A05010904FF4805011900C
:100EA00005210DA8FFF7FAFB04460CB100BFFEE7D1
:100EB00012B010BD1448006840F470001249086078
:100EC0001248006840F001001049086000200F49F6
:100ED000083108600D4800680D4908400B4908605A
:100EE0000C48091D0860081F006820F48020091FB5
:100EF0000860002005490C3108604FF0006002498D
:100F0000803908607047000088ED00E0003802403A
:100F1000FFFFF6FE1030002400BFFEE702E008C825
:100F2000121F08C1002AFAD170477047002001E063
:100F300001C1121F002AFBD17047000010B5FFF756
:100F400082FFFFF703FF0D480D4908600D48486018
:100F5000084600680C4908600C4B4FF011320C49F0
:100F6000064800F01BF80B4B4FF022320A490548A7
:100F700000F014F800F054F8002010BD200000200C
:100F80001800002024000020140000202810002059
:100F90008110000828200020A910000830B54FF06B
:100FA00080751C1F234625601C1F234621601425C5
:100FB0001C1F2346256012251C1F23462560032580
:100FC0001C1F2346256002251C1F23462560012582
:100FD0001C1F234625601C1F2346226011251C1F51
:100FE0002346256010251C1F2346256009251C1F4C
:100FF0002346256008251C1F2346256007251C1F46
:101000002346256006251C1F2346256005251C1F39
:101010002346256004251C1F23462560036030BD40
:10102000002080F3098800BFFF2003490870C8062C
:1010300001491E390860704722ED00E010B50948EB
:10104000006809490968884204D106484068074990
:10105000086003E0034800680449086000F008F8ED
:1010600010BD000018000020100000201400002017
:101070004FF08050014908607047000004ED00E027
:1010800000BF00BF4FF0806006490860C0130860D1
:10109000400008604FF47A70FFF722F9FFF7CEFFA7
:1010A000F0E70000181C024000BF4FF480600649C2
:1010B000086040040860C01308604FF47A70FFF7BE
:1010C0000FF9FFF7BBFFF0E7181C0240000000001B
:1010D00000000000010203040607080900000000E8
:1010E0000102030404110008000000202800000091
:1010F0001C0F00082C11000828000020002400000C
:101100002C0F00080024F400000000001000000074
:1011100001000000000000000000000000000000CE
:0C112000000000000000000000000000C3
:04000005080001AD41
:00000001FF
